:020000040800F2
:1000000038160020AD010008672700087725000892
:1000100065270008D3040008953800080000000098
:100020000000000000000000000000006133000834
:100030003306000800000000692700086333000849
:10004000C7010008C7010008C7010008C701000870
:10005000C7010008C7010008C7010008C701000860
:10006000C7010008C7010008C7010008C701000850
:10007000C7010008C7010008C7010008C701000840
:10008000C7010008C7010008C70100080000000000
:10009000000000000000000000000000C701000890
:1000A000C701000805340008C7010008C70100089F
:1000B000C7010008C7010008C7010008C701000800
:1000C000C7010008C7010008C7010008C7010008F0
:1000D000C7010008C70100088938000800000000B7
:1000E000C7010008C7010008C701000800000000A0
:1000F000000000000000000000000000C701000830
:1001000000000000C7010008C7010008C70100087F
:1001100000000000000000000000000000000000DF
:10012000C7010008C7010008C7010008C70100088F
:10013000C7010008000000000000000000000000EF
:10014000000000000000000000000000C7010008DF
:10015000C7010008C7010008C7010008C70100085F
:10016000C7010008C70100080000000000000000EF
:10017000000000000000000000000000000000007F
:1001800000000000C701000800000000000000009F
:10019000C7010008C7010008DFF80CD000F026F9FD
:1001A00000480047193D00083816002006488047DF
:1001B00006480047FEE7FEE7FEE7FEE7FEE7FEE74C
:1001C000FEE7FEE7FEE7FEE7F533000899010008C9
:1001D0002DE9F05F0546002092469B46884606467C
:1001E000814640241BE0284641464746224600F00F
:1001F000B4F853465A46C01A914110D311461846D6
:10020000224600F09BF82D1A67EB01084F46224664
:100210000120002100F092F817EB00094E41201E4A
:10022000A4F10104DFDC484631462A464346BDE8D6
:10023000F09F10B5431A934209D28318881803E03F
:1002400010F8011D03F8011D521EF9D210BD40EA3D
:1002500001039B0703D009E008C9121F08C0042A44
:10026000FAD203E011F8013B00F8013B521EF9D22B
:1002700010BDD2B201E000F8012B491EFBD270473D
:100280000022F6E710B513460A4604461946FFF762
:10029000F0FF204610BD30B505462A460B4612F841
:1002A000010B13F8014B08B1A042F8D01CB1002893
:1002B00002D06D1CF1E7284630BDCAB2401E10F8CE
:1002C000011F8A4202D00029F9D100207047421C48
:1002D00010F8011B0029FBD1801A704730B5044685
:1002E0000020034600E05B1C934203D2E05CCD5C3F
:1002F000401BF8D030BD70B5064603F005FB04681E
:1003000005460A220021304600F037F82C6070BD07
:1003100030B50B46014600202022012409E021FAD5
:1003200002F59D4205D303FA02F5491B04FA02F5D2
:100330002844151EA2F10102F1DC30BD202A04DBA5
:10034000203A00FA02F1002070479140C2F12003E8
:1003500020FA03F3194390407047202A04DB203A27
:1003600021FA02F00021704721FA02F3D040C2F1D5
:10037000200291400843194670472DE9F047914605
:100380000F4680460446002614F8015B2DB100F0AC
:100390003FF80068405DC007F6D12B2D02D02D2D0F
:1003A00018D0641E4A463946204600F035F827B179
:1003B0003968A14201D1C7F8008071054FF00204ED
:1003C0000BD54042002803DD03F09EFA0460A0072D
:1003D000BDE8F08746F48066E4E70028F8DA03F029
:1003E00093FA04606FF00040F2E70000064C074DFE
:1003F00006E0E06840F0010394E8070098471034F5
:10040000AC42F6D3FFF7CCFEA0200108C0200108C3
:1004100000487047081F01082DE9F05F8246007808
:10042000002715468B460AF10104B946302801D051
:100430009DB113E014F8010B0127782803D0582848
:1004400001D045B10AE00DB1102D07D100271025CC
:1004500014F8010B02E0082500E00A250026B0464A
:100460000EE005FB080005FB06F1012701EB104635
:100470001FFA80F8B6F5803F00D3B94614F8010B97
:10048000294600F018F80028EBDABBF1000F05D080
:100490000FB1641E00E05446CBF80040B9F1000FE4
:1004A00006D003F031FA02210160C81EBDE8F09FBA
:1004B00048EA0640FAE73A2800D2303820F0200215
:1004C000412A01D3A2F13700884201D34FF0FF3017
:1004D0007047FEE710B503F0D7FBBDE810400120E0
:1004E00000F00CB810B50121034800F041FE0128CE
:1004F00000D0002010BD00000004024008B101221D
:1005000000E000220121014800F037BE0004024053
:100510002DE9F0415FEA00084FF0FF300F46064634
:1005200052D0002F50D00020FFF7E8FF142003F036
:10053000BFFD0120FFF7E2FF1E2003F0C7FDEFF330
:10054000108572B67821002000F05FF8B0BB7821EA
:10055000012000F05AF888BB7821002000F055F8FF
:1005600060BB00F033F8002828DB60F3070400F0DC
:100570002DF8002822DB60F30F2400F027F8002874
:100580001CDB60F3174400F021F8002816DB60F351
:100590001F6400F01BF8002810DBC1B2E0B2230C8E
:1005A00000EB142203EB14631A44D2B28A4205D141
:1005B000C8F80000C4F307400026386005B962B6E9
:1005C0000120FFF79BFF3046BDE8F08170B50024A5
:1005D0002546661E6421012000F017F870B9282016
:1005E00003F074FD6400FFF77DFF012801D144F0A2
:1005F00001046421002000F008F808B1304670BD05
:100600006D1C082DE6DB204670BD70B50C46054616
:1006100008E0FFF767FFA84201D1002070BD01206C
:1006200003F054FD201EA4F10104F2DC4FF0FF3072
:1006300070BD7047F0B5A9B014464FF0FF360028E2
:1006400032D0002930D02A4D6A781AB129A003F09F
:1006500023F94BE02B784FF47A72052B24D2DFE894
:1006600003F003131A262D0041F2883228A129A095
:1006700000F038FB044629A003F00EF9A4B94FF4AA
:10068000966000F073FC28E021A12AA000F02AFB6C
:10069000044629A005E01EA12DA000F023FB04467E
:1006A0002DA003F0F9F8C4B1304629B0F0BD18A16F
:1006B0002EA000F017FB04462FA0F2E7034600919E
:1006C00033A2A02101A803F0F7F8224610A101A847
:1006D00000F008FB044633A0E3E72878042803D0A1
:1006E000401C28700120E0E7012068700020DCE752
:1006F000580000205769466920616C726561647911
:1007000020636F6E6E65637465640D0A00000000FF
:100710004F4B000041542B525354000052657365F7
:100720007474696E672045535033322E2E2E0D0A95
:10073000000000004154000053656E64696E67203C
:10074000415420636F6D6D616E642E2E2E0D0A0074
:10075000415445300000000044697361626C696E69
:1007600067206563686F2E2E2E0D0A0041542B43BF
:10077000574D4F44453D310053657474696E672091
:1007800057694669206D6F64652E2E2E0D0A000094
:1007900041542B43574A41503D222573222C222598
:1007A00073220000436F6E6E656374696E67207418
:1007B0006F20576946692E2E2E0D0A000348816866
:1007C00009B90349816008467047000058000020BD
:1007D000A80100202DE9F04FADF26C5D9A46DDF8DE
:1007E0009CB5DDF8A08515460E464FF0FF39E8B1FF
:1007F000E6B1BAF1000F19D0DDF89415B1B15FEA96
:100800000B0113D05FEA080110D03249497869B171
:100810004FF4B474009030A3344A21460DF20440E2
:1008200003F04AF8002801DDA04204DB48460DF23F
:100830006C5DBDE8F08F44F620634FF4806201A93F
:100840000DF2044000F0B4F910B101A928A03DE078
:100850002DA101A8FFF71FFD28B301A8022D25D364
:100860002CA1FFF718FD08B3083004462221FFF73A
:1008700024FDD8B1A04219D9001B87B2AF4201D3E1
:100880006D1EAFB23A4621463046FFF7D2FC00203B
:10089000F055514601A8DDF8902500F091F840B1DF
:1008A00001A91FA012E001A925A00FE001A92AA01B
:1008B0000CE00DF29451CDF8008006C95B4601A80A
:1008C00000F0C8F80028B2D001A92BA002F0E4FF84
:1008D000ACE7000058000020536A70737147517AEA
:1008E0007A4C5849786B5766730000002C20010839
:1008F0005B485454505D20524551204641494C3A82
:100900002025730D0A00000022726573756C7473E4
:1009100022000000226E616D65223A220000000074
:100920005B485454505D2054494D4520504152532A
:1009300045204641494C3A2025730D0A000000002D
:100940005B485454505D20424144204A534F4E3A34
:100950002025730D0A0000005B485454505D20436D
:10096000495459205041525345204641494C3A2060
:1009700025730D0A000000005B485454505D205060
:1009800041525345204641494C3A2025730D0A00F7
:1009900010B500B90848094CA060002020706070B4
:1009A00000F0E6F8A068002805D00122A11CBDE8EF
:1009B000104001F07FBD10BDA801002058000020AC
:1009C0002DE9F04114460F464FF0FF3878B177B16A
:1009D000022C0CD31BA1FFF75EFC40B10F30054683
:1009E0002221FFF76AFC060001D0AE4202D8404641
:1009F000BDE8F08154212846FFF75FFC4FF0000866
:100A0000611E88B1B0420FD2321A092A0CDB0825C8
:100A1000401C082C00D88DB201462A463846FFF704
:100A200008FC07F805800BE0701B86B2A64200D3D5
:100A30008EB2324629463846FFF7FBFB07F80680A0
:100A40000020D5E7226C6173745F75706461746512
:100A5000223A22002DE9FF4F85B099460598DDF82E
:100A600048A0154688464FF0FF3B002855D0B8F106
:100A7000000F52D0B9F1000F4FD05FEA0A004CD0FE
:100A8000022D4AD330A10598FFF705FC002844D079
:100A9000083004462221FFF710FC07003DD0381B28
:100AA00086B2AE4201D36D1EAEB2324621464046FA
:100AB000FFF7BFFB002508F8065026A13846FFF7D0
:100AC000EAFB20B923A10598FFF7E5FB28B30F3017
:100AD00004462221FFF7F1FBF8B1A0421DD9001B0B
:100AE00086B2082E00D30726324621466846FFF715
:100AF000A0FB68460DF80650FFF7FDFBC9F80000A3
:100B000018A10598FFF7C7FB38B108300446222129
:100B1000FFF7D3FB08B1A04203D8584609B0BDE89F
:100B2000F08F001B86B2082E00D3072632462146DE
:100B300002A8FFF77EFB02A88555FFF7DCFBCAF889
:100B400000000020EAE700002274657874223A224F
:100B5000000000002274656D7065726174757265C5
:100B6000223A220022636F6465223A2200000000CC
:100B7000024800218180C180704700005800002099
:100B800020B109498A88CB889A4201D10020704758
:100B9000064ACB88D25C0270C888401CC0F30A00A9
:100BA000C88001207047000058000020380A00204B
:100BB0002DE9F84F984615460E4607004FF0000401
:100BC0004FF0FF3A6ED0002E6CD0022D6AD3FFF7A3
:100BD000F5FD834629463046FFF752FBFFF7C8FF75
:100BE0003846FFF774FB82B24FF47A794B463946A8
:100BF000584601F06FFC002854D14B4602222AA12E
:100C0000584601F067FC00284CD100F0BBFA0746BB
:100C1000A346A5F1010940E06846FFF7B1FF48B1DE
:100C20004C450BD29DF800003055641CA4B206F868
:100C300004B011E0012000F099F92EE0AA1E711C09
:100C40003046FFF7F6FA70199DF8001000F8021C04
:100C500000F801BC1FFA89F414A13046FFF71BFB12
:100C600088B116A13046FFF716FB48B915A13046EA
:100C7000FFF711FB20B915A13046FFF70CFB10B1AF
:100C80000020BDE8F88F13A13046FFF704FB48B9F8
:100C900012A13046FFF7FFFA20B900F073FAC11B2A
:100CA0004145B9D35046ECE70D0A00002B48545497
:100CB00050434C49454E543A000000000D0A4F4B3A
:100CC0000D0A00000A4F4B0D0A0000000A4F4B0AA4
:100CD000000000004552524F520000004641494C6E
:100CE000000000002DE9F047C2B016468A46050014
:100CF0004FF000044FF0FF375DD0BAF1000F5AD02B
:100D0000FFF75CFD81464FF480716846FFF7B8FA43
:100D1000FFF72EFF2846FFF7DAFA82B24FF47A780F
:100D200043462946484601F0D5FBA0BB4346022274
:100D300022A1484601F0CEFB68BB00F023FA05462D
:100D4000A146E84632E040A8FFF71AFF50B1FF2C59
:100D50000CD29DF8001108F80410641CA4B208F825
:100D600004900FE0012000F001F91FE0FE2208F1DD
:100D700001016846FFF75DFA9DF800018DF8FE005D
:100D80008DF8FF9051466846FFF785FA20B10020A4
:100D900042B0BDE8F0870EE009A16846FFF77BFA94
:100DA00048B909A16846FFF776FA20B900F0EAF9D8
:100DB000401BB042C7D33846EAE700000D0A0000E6
:100DC0004552524F520000004641494C000000007D
:100DD000114930B40246886800281AD012680368A6
:100DE0009A4216D18B788A88CC88521CC2F30A02A8
:100DF000A24204D1CC88641CC4F30A04CC80074C02
:100E00008D8863558A800449012230BC891C01F019
:100E100051BB30BC7047000058000020380A002049
:100E200072B6FEE7B8B1012815D0022813D0032806
:100E300011D0042811D005280FD006280DD007287E
:100E40000BD0082809D0092807D0A0F10A010929E8
:100E500005D8104870471048704710487047A0F1F7
:100E60001401052901D80E487047A0F11A01032981
:100E700001D80C4870471E2807D01F2805D0252808
:100E800005D0262803D0084870470848704708480E
:100E900070470000A0F70008609C0008F0570008A9
:100EA00090850008D0E0000830B3000800CA0008B0
:100EB000C06E00082DE9F0410446876D00F062F92C
:100EC000064694F835000025022806D0802060658B
:100ED00084F834500120BDE8F0812068016821F0D9
:100EE000160101602068416921F080014161206C98
:100EF00008B9A06C20B12068016821F008010160E8
:100F00002068016821F0010101600CE000F03AF96D
:100F1000801B052807D920206065032084F8350050
:100F200084F83450D7E720680068C007EED194F801
:100F30005C103F208840B860012084F8350084F8B8
:100F400034500020C7E790F83510022903D08021E3
:100F5000416501207047052180F83510006801685F
:100F600021F00101016000207047000070B50446C7
:100F700000F008F90546601C02D0044800780444DB
:100F800000F000F9401BA042FAD370BD44000020DD
:100F90002DE9F84FDFF8B8A10022012403254FF016
:100FA0000F090AF1040BAAF1040E00BF0B6804FA42
:100FB00002F63340B34273D10F7907F00307012FD4
:100FC00001D0022F16D187684FEA420805FA08FCC3
:100FD00027EA0C07D1F80CC00CFA08FC4CEA070C05
:100FE000C0F808C04768B7430E79C6F300169640AC
:100FF0003E4346600E79F643B6070DD0C7685600EB
:1010000005FA06FC27EA0C07D1F808C00CFA06FC22
:101010004CEA070CC0F80CC00E7906F00306022E4D
:1010200010D1D60800EB8608D8F8206057074FEAA1
:10103000D76C09FA0CF7BE430F6907FA0CF7374370
:10104000C8F8207006684FEA420C05FA0CF7BE4358
:101050000F7907F0030707FA0CF7374307604E686C
:1010600016F4403F6DD03B4E376847F480473760F9
:10107000366822F0030706F480460096364E07EBEA
:10108000060CDCF8086897073F0F09FA07F826EA0C
:101090000806DFF8C880404503D14FF000081EE085
:1010A0004FE0DFF8BC80404502D14FF0010816E068
:1010B000DFF8B080404502D14FF002080FE0DFF8C2
:1010C000A880404502D14FF0030808E0DFF89C807B
:1010D000404502D14FF0040801E04FF0070808FA3C
:1010E00007F848EA0608CCF80888DAF8006057469E
:1010F000D1F804C09E435FEACC2C00D51E433E606D
:10110000DBF800605F46D1F804C09E435FEA8C2C98
:1011100000D51E433E60DEF800607746D1F804C07B
:101120009E435FEA8C3C00D51E433E60084F083F5B
:101130003E68D1F804C09E435FEACC3C00D51E4314
:101140003E60521C102AFFF431AFBDE8F88F00005A
:10115000083C014044380240003001400000024099
:101160000004024000080240000C0240001002404F
:101170000069084000D0012070470AB181617047C2
:101180000904FBE701488068704700004400002024
:1011900070B5040025D094F83D00002520B984F8EE
:1011A0003C50204600F0B8F8242084F83D00206828
:1011B000016821F0010101602068016841F40041EB
:1011C00001602068016821F40041016000F052FADA
:1011D0004D4A6168914201D84C4900E04C4988422F
:1011E00001D2012070BD4B492368B0FBF1F15E686C
:1011F00026F03F060E435E606368934206D94FF4C3
:10120000967359434FF47A73B1FBF3F12368491C89
:101210001E6A26F03F06314319626168914210D878
:101220004900401EB0FBF1F2521CC2F30B02042A2B
:1012300001D2042022E0B0FBF1F0401CC0F30B000F
:101240001CE0A268F2B301EBC10303EB0116431EDD
:10125000B3FBF6F35B1C43F480431B0549D092B308
:1012600001EBC10202EB0111401EB0FBF1F0401C8A
:10127000C0F30B0040F4804040F400402168CA698C
:101280004CF6FF739A431043C861D4E90710014339
:101290002068026822F0C00211430160D4E9030112
:1012A00001432068826848F2FF339A43114381600A
:1012B000D4E9050108432168CA6822F0FF021043FF
:1012C000C86001E00EE016E02068016841F001010D
:1012D00001602564202084F83D00256384F83E5099
:1012E000002070BD01EB4106431EB3FBF6F35B1C0F
:1012F000B3E70120C2E701EB4101401EB0FBF1F072
:10130000401CC0F30B00B7E7A086010080841E00DC
:1013100000093D0040420F0010B586B0044614217C
:101320006846FEF7ADFF13492068884220D1124875
:101330000021026842F002020260006800F0020030
:101340000590C02000901220CDE9010103200390F8
:101350000420049069460948FFF71AFE0648103039
:10136000016841F400110160006800F4001005906C
:1013700006B010BD00540040303802400004024066
:10138000024881680278114481607047440000205F
:101390000B4810B5016841F400710160016841F427
:1013A00080610160016841F480710160032000F0F8
:1013B00095F80F2000F006F800F04AF8002010BD64
:1013C000003C024030B505461C4887B00024016847
:1013D00041F400310160006806A900F4003000907B
:1013E00001A800F027F900F055F91549154AB0FB9E
:1013F000F1F11548491E026040F2E732C0E90324CA
:10140000C0E90114846100F0C3FC040012D10E484D
:1014100000F032FD04000DD1192000F031F8102D3C
:1014200007D200222946192000F038F80748056045
:1014300000E0012407B0204630BD000044380240DF
:1014400040420F0000440140F0010020480000200D
:101450000A4808B5016841F480410160006800F461
:10146000804000900548001F016841F080510160F4
:10147000006800F08050009008BD00004438024031
:10148000002809DB00F01F02012191404009800083
:1014900000F1E020C0F8001170470000F0B40E4BDE
:1014A0001B680C46C3F30223C3F10705042D00D9C2
:1014B0000425191D072901D2002300E0DB1E0126A7
:1014C00006FA05F1491E214099409E40761E1640BD
:1014D0003143F0BC02F008BA0CED00E0064900F020
:1014E000070208684FF6FF03184040EA0220034A4B
:1014F00010430860704700000CED00E00000FA05A2
:101500002DE9F0470E46050065D0DFF81481D8F8C4
:101510000000F7B200F00700B04207D288F8007070
:10152000D8F8000000F00700B04254D128683D4CC4
:10153000810712D5400703D5206840F4E0502060B1
:101540002878000703D5206840F4604020602068B8
:10155000A96820F0F000084320602878C0072DD04B
:10156000304968680839012812D0022813D00328AE
:1015700011D00968890700292DDA216821F00301BB
:1015800001432160FFF7FEFD814641F2883A0EE0FB
:1015900009688903EFE709688901ECE7FFF7F2FDC5
:1015A000A0EB0901514502D90320BDE8F08720686E
:1015B000696800F00C00B0EB810FEFD1D8F8001093
:1015C000404601F00701B14207D90770006800F0FA
:1015D0000700B04201D00120E7E72878400705D591
:1015E0002068E96820F4E05008432060287800076C
:1015F00006D52068296920F4604040EAC1002060D7
:1016000000F058F82168084AC1F30311515CC84042
:101610000649086006480068FFF7D4FE0020C4E7CA
:10162000003C0240083802401041000850000020F1
:10163000480000200F2202600C4A136803F00303E5
:101640004360136803F0F0038360136803F4E0530E
:10165000C36012684FF4E05303EAD2020261044807
:10166000006800F00700086070470000083802407A
:10167000003C02400448054900680968044AC1F377
:101680008221515CC8407047500000200838024059
:10169000204100080448054900680968044AC1F36C
:1016A0004231515CC8407047500000200838024069
:1016B00020410008154810B5006810F00C021448CD
:1016C00013D01449042A0FD0082A0ED10F4C241F1E
:1016D0002268236802F03F025B0207D52068C0F34E
:1016E0008810A0FB010106E0084610BD2168C1F387
:1016F0008811A1FB00010023FEF76AFD2168C1F3F8
:101700000141491C4900B0FBF1F010BD083802400E
:101710000024F40040787D012DE9F84F04006ED0DC
:101720002078DFF84C93C007A9F104054AD009F1ED
:1017300004000168C1F38101012908D00068C0F3E9
:10174000810002280AD1D9F80000400206D5286895
:10175000800337D560680028E1D033E06068B0F5D9
:10176000803F10D0B0F5A02F286810D020F4803032
:101770002860286820F4802028606068A8B1FFF7FE
:1017800001FD06460DE0286840F48030F4E740F49F
:1017900080202860F7E700BFFFF7F4FC801B642877
:1017A00073D828688003F7D50CE0FFF7EBFC0646FA
:1017B00005E000BFFFF7E6FC801B6428F0D828682E
:1017C0008003F7D42078DFF8AC8280074FF0000A5E
:1017D0003ED5A748001D016811F00C0F08D0006825
:1017E000C0F3810002280BD1D9F80000400207D4D1
:1017F0002868800716D5E068012800D112E033E19F
:10180000E068B8B10120C8F80000FFF7BBFC06464D
:1018100005E000BFFFF7B6FC801B0228C0D828688F
:101820008007F7D52868216920F0F80040EAC10058
:1018300028600DE0C8F800A0FFF7A4FC064604E00D
:10184000FFF7A0FC801B02281FD828688007F7D468
:101850002078000722D5864F87486169703771B1BB
:1018600001210160FFF78EFC064604E0FFF78AFCC9
:10187000801B022809D838688007F7D50EE0C0F829
:1018800000A0FFF77FFC064605E082E0FFF77AFC48
:10189000801B02287DD838688007F7D4207840075D
:1018A00068D5DFF8CCB100270BF13C0BDBF800006A
:1018B000C0000BD4DBF8001041F08051CBF80010D1
:1018C000DBF80000012700F0805000906B4E30687C
:1018D000C00510D4306840F480703060FFF752FCCF
:1018E000009005E0FFF74EFC0099401A022850D8FE
:1018F0003068C005F6D55E4EA0686C3601280FD062
:101900000528306810D020F001003060306820F0E9
:1019100004003060A068B8B1FFF734FC00900FE01D
:10192000306840F00100F4E740F004003060F7E771
:10193000FFF728FC0099411A41F28830814266D8AD
:1019400030688007F4D50EE0FFF71CFC009007E03C
:10195000FFF718FC0099411A41F28830814256D8AD
:1019600030688007F4D42FB1DBF8001021F08051EB
:10197000CBF80010A069C8B33D49091D0968C1F33F
:10198000810102294AD00228504607D0C8F86000D9
:1019900000E03CE0FFF7F6FB04463BE04746C8F8B2
:1019A0006000FFF7EFFB064605E000BFFFF7EAFB2C
:1019B000801B02282BD828688001F7D4D4E90701BE
:1019C0000843A16A2E4A490802EB0141626A41EAD2
:1019D0008211084394F82C1040EA0161C9F8001004
:1019E00001203866FFF7CEFB044606E03EE000BF6C
:1019F000FFF7C8FB001B022809D828688001F7D52B
:101A000034E000BFFFF7BEFB001B022802D9032011
:101A1000BDE8F88F28688001F4D427E00128F7D0CA
:101A2000D9F80000E26900F4800191421CD1226AD9
:101A300000F03F01914217D147F6C071626A014040
:101A4000B1EB821F10D1A26A4FF0FF3300F4403196
:101A500003EB5202B1EB024F06D194F82C1000F0C8
:101A60007060B0EB016F01D00120D1E70020CFE71B
:101A70000438024000004742800E47420070004098
:101A80000000FFFF70B5040009D0606A002540B176
:101A900025616561A56294F8510040B10CE0012018
:101AA00070BD6068B0F5827FF4D0E561F2E784F83C
:101AB0005050204600F044F8022084F8510020687D
:101AC000016821F040010160A088218900F4827042
:101AD00001F404410843A18901F400610843217C19
:101AE00001F002010843217D01F001010843218B2F
:101AF00001F400710843217F01F03801084394F894
:101B0000201001F080010843218D01F400510843A9
:101B100021680860A069042101EA104094F82410AB
:101B200001F010010843216848602068C16921F470
:101B30000061C1616565012084F85100002070BD1D
:101B400010B586B0044614216846FEF799FB134988
:101B50002068884220D112480021026842F4805255
:101B60000260006800F4805005900D481438026847
:101B700042F001020260006800F001000590E020E0
:101B800000900220CDE9010103200390052004907C
:101B900069460448FFF7FCF906B010BD003001406B
:101BA00044380240000002402DE9F84F984616469E
:101BB0008A460446FFF7E6FA814694F85100012868
:101BC0001ED1BAF1000F73D0002E71D094F85000DE
:101BD000012815D0012784F85070032084F85100A3
:101BE00000256565C4F830A0A686E686A563A587AE
:101BF000E58765642564A068B0F5004F03D00CE06C
:101C00000220BDE8F88F2068016821F040010160E2
:101C10002068016841F4804101602068016849063C
:101C200003D4016841F040010160E068B0F5006F45
:101C3000606803D048B3012E27D047E008B1012ED9
:101C40001FD1206B21680088C86006E02068816889
:101C5000890709D5216B0988C160206B801C20632E
:101C6000E08E401EE0860CE0FFF78CFAA0EB090145
:101C7000414503D3B8F1FF3F03D035E0B8F1000F81
:101C800032D0E08E0028E1D123E0206B216800787B
:101C9000087306E02068816889070AD5216B0978F6
:101CA0000173206B401C2063E08E401EE0860DE037
:101CB0002BE0FFF767FAA0EB0901414503D3B8F128
:101CC000FF3F03D010E0B8F1000F0DD0E08E0028E8
:101CD000E0D14A464146204600F048FD08B12020A8
:101CE0006065A06830B109E084F8517084F8505004
:101CF000032086E72068C1688068009084F85170EE
:101D000004F8505F60680028F3D0012079E770473D
:101D10007047000070B590F83C20012A2CD00124B7
:101D200080F83C40022280F83D2003685A689D6894
:101D300022F070060A6832435A60104B02689A42D9
:101D40000ED0B2F1804F0BD00D4B9A4208D00D4B04
:101D50009A4205D00C4B9A4202D00C4B9A4204D1C5
:101D6000496825F080031943916080F83D400021C7
:101D700080F83C10084670BD022070BD0000014094
:101D80000004004000080040000C004000400140FA
:101D900010B5040003D094F83D0010B107E0012015
:101DA00010BD002084F83C00204600F01FF80220FF
:101DB00084F83D00211D206801F02AFB012084F8F1
:101DC000460084F83E0084F83F0084F8400084F820
:101DD000410084F8420084F8430084F8440084F809
:101DE000450084F83D00002010BD000008B50068E3
:101DF0000649884208D10648016841F004010160A3
:101E0000006800F00400009008BD000000080040D9
:101E10004038024090F83D10012901D00120704760
:101E2000022180F83D1000680E4988420ED0B0F1C2
:101E3000804F0BD00C49884208D00C49884205D00D
:101E40000B49884202D00B49884204D1816801F0D5
:101E50000701062903D0016841F00101016000205B
:101E600070470000000001400004004000080040EE
:101E7000000C00400040014090F83D10012901D0C5
:101E800001207047022180F83D100168CA6842F0C5
:101E90000102CA6000680E4988420ED0B0F1804F3E
:101EA0000BD00C49884208D00B49884205D00B4919
:101EB000884202D00A49884204D1816801F00701B2
:101EC000062903D0016841F001010160002070473C
:101ED000000001400004004000080040000C0040E9
:101EE0000040014070B5044690F83C0000250128F0
:101EF00017D0012684F83C60022084F83D00206859
:101F0000826822F0770222F47F42826008685028BB
:101F100038D00DDC20284FD005DC90B3102811D12B
:101F20004AE0022070BD302846D040280AD13BE06C
:101F300060282FD070280DD0B0F5805F03D0B0F5A9
:101F4000005F12D0012584F83D60002084F83C0039
:101F5000284670BDCB68D1E90121206801F0A8FABC
:101F60002068816841F0770109E0CB68D1E901215F
:101F7000206801F09DFA2068816841F48041816009
:101F8000E1E719E0CA684968206801F0A3FA502126
:101F9000206806E0CA684968206801F0ACFA602150
:101FA000206801F08FFACEE7CA684968206801F01E
:101FB00091FA40212068F4E7226801461046F0E7D4
:101FC00070472DE9F04104460068C66805694FF086
:101FD0000007A90713D5B10711D5F91E016101202A
:101FE0002077206880698007204602D0FFF7E8FF4D
:101FF00004E000F07EF8204600F07CF827776807C0
:1020000016D5700714D521686FF00400086102200E
:1020100020772068806910F4407F204602D0FFF7C7
:10202000CFFF04E000F065F8204600F063F8277762
:10203000280715D5300713D521686FF0080008610F
:10204000042020772068C0698007204602D0FFF76F
:10205000B7FF04E000F04DF8204600F04BF827777A
:10206000E80616D5F00614D521686FF01000086157
:10207000082020772068C06910F4407F204602D0F5
:10208000FFF79EFF04E000F034F8204600F032F83D
:102090002777E80708D0F00706D021686FF0010025
:1020A0000861204600F028F8280608D5300606D535
:1020B00021686FF0800008612046FFF728FE68065F
:1020C00008D5700606D521686FF0400008612046EB
:1020D00000F01CF8A8060AD5B00608D521686FF0F4
:1020E000200008612046BDE8F041FFF711BEBDE8C1
:1020F000F08170477047000000680349884201D1B1
:10210000FFF73EB970470000004401407047704738
:1021100070470000F8B5016804460868CA684B6952
:1021200010F00F0F4FF0000559D003F0010602F434
:102130009077374365D0C10705D0D10503D5616CD1
:1021400041F001016164410705D5D90703D0616CF5
:1021500041F002016164810705D5D90703D0616CA4
:1021600041F004016164010707D502F02001314309
:1021700003D0616C41F008016164616C00293AD0C0
:10218000800604D5900602D5204601F0F4F92068B7
:102190004069616CC0F38010090700D460B3204629
:1021A00001F0C2F920684069400621D5206814304A
:1021B00050E8001F21F0400140E80012002AF5D14C
:1021C000E06BA8B172490165E06BFEF7BCFE002828
:1021D00011D0E06B016D01B0BDE8F0400847830607
:1021E0000FD593060DD52046BDE8F84001F0C3B9E0
:1021F0002046FFF78DFFF8BD2046FFF789FF656495
:10220000F8BD266B2023012E7ED1C6067CD5D606CE
:102210007AD508684868009048694FF00206400681
:102220004DD5E26B106840684FF480770004000CD5
:102230003AD0A18D814237D9E085D069B8422DD0FE
:1022400020680C3050E8001F21F4807140E8001233
:10225000002AF5D12068143050E8001F21F0010158
:1022600040E80012002AF5D12068143050E8001F21
:1022700021F0400140E80012002AF5D184F84230F4
:10228000256320680C3050E8001F21F0100140E861
:102290000012002AF5D1E06BFEF70CFE6663A08DFC
:1022A000E18D401A81B206E0A18D8142A8D1D069AA
:1022B000B842A5D166632046FFF729FFF8BDA08D7F
:1022C000E18D401A81B2E08D0028F7D00029F5D0C9
:1022D00020680C3050E8002F22F4907240E800276C
:1022E000002FF5D12068143050E8002F22F00102B1
:1022F00040E80027002FF5D184F84230256320689C
:102300000C3050E8002F00E006E022F0100240E818
:102310000023002BF3D1CDE705062BD5150629D5D3
:1023200094F841002128C9D1A068B0F5805F01D19F
:102330002069B0B1206A411C2162216800784860A0
:10234000E08C401E0004000CE084B7D12068C16816
:1023500021F08001C1602068C16841F04001C16086
:10236000F8BD206A0088C0F308004860206A801C1D
:102370002062E5E74006F3D55006F1D5CA6820464D
:1023800022F04002CA6084F8413000F0F3F8F8BD52
:102390001B35000870B5040004D094F841000025F6
:1023A00010B106E0012070BD84F84050204600F0D6
:1023B00023F8242084F841002068C16821F40051EA
:1023C000C160204601F038F92068016921F490418C
:1023D00001612068416921F02A0141612068C168DA
:1023E00041F40051C1606564202084F8410084F804
:1023F00042006563002070BDF0B587B0044614212B
:102400006846FDF73DFF274F236800222649022436
:10241000032507262548BB421CD1234B14331F68D4
:1024200047F010071F601B6803F0100305930B684B
:1024300043F001030B60096802AB01F00101059153
:102440006902CDE9001483E864006946FEF7A0FD47
:1024500007B0F0BD164FBB42FAD1134B10331F68C3
:1024600047F400371F601B6803F4003305930B68C3
:1024700043F001030B60096802AB01F00101059113
:102480000C21CDE9001483E864006946FEF780FD65
:10249000002211462620FFF701F82620FEF7F0FF64
:1024A000D6E7000000100140303802400000024032
:1024B0000044004090F84230202B01D002207047A9
:1024C00021B11AB10023036301F03CB90120704728
:1024D000FEF77EBC2DE9F843044690F8410098468B
:1024E00016460D46202802D00220BDE8F88385B1AB
:1024F0007EB100206064212084F84100FEF742FE96
:10250000A6848146E684A0682027B0F5805F02D0CB
:1025100003E00120E9E7206910B12E4600250EE016
:1025200000260CE08021204601F027F9A8B9C6B1A9
:1025300016F8010B21684860E08C401EE084E08CB6
:102540004B464FF00002CDF800800028EAD14FF052
:102550004001204601F011F940B184F84170032098
:10256000C3E735F8020BC0F30800E3E784F84170D5
:102570000020BAE77047FEE770B586B014216846C0
:10258000FDF77EFE1F480025016841F0040101604F
:10259000016801F004010591016841F080010160CA
:1025A000016801F080010591016841F001010160BD
:1025B000016801F001010591016841F0020101602B
:1025C0000068114E00F002000590002247F2010160
:1025D0003046FEF7D2FD01241120CDE900406946C6
:1025E0003046CDE90245FEF7D3FC4FF4E0408DE8DC
:1025F00031000220039069463046FEF7C9FC06B060
:1026000070BD000030380240000402400D4810B593
:102610000B4901600C49416000214FF48042816008
:10262000C0E9031241618161C1610162FEF7B0FD41
:10263000002803D0BDE81040FEF7F2BB10BD00003B
:10264000005400406C000020A08601000F4810B527
:102650000D4901604FF48271416000218160C160C9
:102660004FF400720161C0E90512C161016241626B
:1026700081620A21C162FFF705FA002803D0BDE894
:102680001040FEF7CDBB10BD00300140C00000205F
:1026900010B586B000241648009401940294039467
:1026A000049412490594C0E900144FF6FF71C0E983
:1026B000024104618461FFF76BFB08B1FEF7B0FBD8
:1026C0004FF48050009069460948FFF70BFC08B1B1
:1026D000FEF7A6FB049404A905480594FFF71AFB2E
:1026E000002801D0FEF79CFB06B010BD000800409A
:1026F000180100200C4810B50A4901604FF4E1317F
:102700004160002181600C22C160C0E90412816136
:10271000C161FFF73FFE002803D0BDE81040FEF77F
:102720007FBB10BD00100140600100200C4810B5B7
:102730000A4901604FF4E1314160002181600C22BF
:10274000C160C0E904128161C161FFF723FE002866
:1027500003D0BDE81040FEF763BB10BD004400404D
:10276000A8010020FEE7FEE770470000F8B5154617
:102770000E460B46009204460122022100F02CF87E
:10278000A0B9134813490068B0FBF1F04FF47A7117
:10279000484300906068B0F5827F0DD13346002237
:1027A00080212046009500F017F870B1606D40F070
:1027B000200060650320F8BD009830B1401E0090F5
:1027C00020688068C0430006F6D50020F8BD0000F0
:1027D0005000002000366E012DE9F8431E46914658
:1027E00088460446089DFEF7CDFC401B351AFEF7CF
:1027F000C9FC074626480068C0F3CB3068430AE0AE
:10280000701C09D0FEF7BEFCC01BA8420FD275B1E8
:102810000098B8B3401E00902068816838EA010033
:1028200033D000214945EBD10020BDE8F883206872
:10283000416821F0E00141606068B0F5827F0BD112
:10284000A068B0F5004F02D0B0F5806F04D12068C9
:10285000016821F040010160A06AB0F5005F09D174
:102860002068016821F4005101602068016841F48A
:1028700000510160012084F85100002084F85000CC
:102880000320D2E7FFE70025C6E70121CAE70000E1
:10289000500000202DE9F047164688468146127800
:1028A000334600F023F8002817D13078032819D1D7
:1028B0000D4F002407EB041540462A792968FDF7DF
:1028C0000DFD60B92A7B33464846A96800F00EF832
:1028D00028B107EB041109793170BDE8F087641C59
:1028E000242CE7D30020F8E7441C01082DE9F04729
:1028F00084681F46904689460846FDF7E8FC064670
:1029000084B90020BDE8F087FDF7E1FC05464045AD
:1029100007D1B54205D82A4649462068FDF7DEFCB6
:1029200020B1083420680028EED1EBE73D70204646
:10293000E8E700002DE9FF4F85B012AC94E82404CD
:102940001C0ADBB2CDE90234130AD2B2CDE900236E
:10295000002D6FD02B78002B6CD06A78002A69D0BC
:102960005FEA0A047ED003FB0AF303EB5203B3FBD6
:10297000F2F217043F0C00D10127802872D2A0295F
:1029800070D23C4602195646802A02D9C0F1800214
:1029900094B28A19A02A02D9C1F1A00296B2002CE1
:1029A00060D0002E5ED08A19521ED3B20219521E78
:1029B000D2B2C9B2C0B200F039FC2C2000F08CFCBD
:1029C00000204CE0697801FB09F1B1FBFAF082B21A
:1029D00000213BE02878254B86464843B0FBF7F0C2
:1029E0001FFA80FB07989D4205D12E2801D20023B3
:1029F0000EE02E3805E0A0F120035F2B00D320204D
:102A0000203895F801C06B6800FB0C2053F820308B
:102A1000BEF1100F02D94FF0004001E04FF400402A
:102A200020FA0BF0034206D01148039B00F8113046
:102A3000029B05E016E00E48019B00F81130009B58
:102A40000B4800EB4100491C437089B2A142C1D33D
:102A50006100074800F060FC09F1010080B2814686
:102A6000B042AFD309B0BDE8F08F0000DC1B010815
:102A7000380300202DE9F84F1D461400DDE90C3223
:102A80004FEA1326DDF828A003F0FF0B4FEA1229C6
:102A900002F0FF08009651D0002D4FD080284DD273
:102AA000A0294BD20219802A02D9C0F1800294B227
:102AB0004A19A02A02D9C1F1A00295B2002C3DD03A
:102AC000002D3BD04A19521ED3B20219521ED2B267
:102AD000C9B2C0B200F0AAFB2C2000F0FDFB00261A
:102AE000174F29E0BAF1000F04D00B9906FB01A1A2
:102AF000002019E00021FBE771B101EBD00200F0EA
:102B0000070C1378802222FA0CF21A4204D0009AA1
:102B100007F810205A4602E007F81090424607EBEB
:102B20004003401C5A7080B2A042E5D361000448C3
:102B300000F0F2FB761CB6B2AE42D3D3BDE8F88FFC
:102B4000380400202DE9FF4F83B0DDE914321C0A60
:102B5000DBB2CDE900344FEA122B02F0FF0ADDE9C7
:102B60001287059A002A61D0069A002A5ED05FEA91
:102B700008025BD0002F59D0802857D2A02955D207
:102B8000454642193C46802A02D9C0F1800295B2DE
:102B90000A19A02A02D9C1F1A00294B2002D45D091
:102BA000002C43D00A19521ED3B24219521ED2B27F
:102BB000C9B2C0B200F03AFB2C2000F08DFB002619
:102BC000DFF8709030E0069810997043B0FBF7F092
:102BD00080B211B1119A00FB021100201CE099B1E2
:102BE000059A4243B2FBF8F292B201EBD20302F033
:102BF000070C1B78802222FA0CF21A4204D0019BA7
:102C000009F81030009B02E009F810B0534609EBB8
:102C10004002401C537080B2A842E0D369000548CE
:102C200000F07AFB761CB6B2A642CCD307B0BDE862
:102C3000F08F0000380500202DE9F05F1546DDE932
:102C40000AB499465FEA0B0271D0002D6FD0B9F13A
:102C5000000F6CD0002C6AD0802868D2A02966D2E0
:102C60004D4508D309FB04F202EB5502B2FBF5F225
:102C70001FFA82F80AE005FB04F202EB5903B3FBEA
:102C8000F9F2A0461404240C00D10124B8F100028A
:102C900001D101229046264617468219802A02D980
:102CA000C0F1800296B2CA19A02A02D9C1F1A002CD
:102CB00097B2002E3BD0002F39D0CA19521ED3B282
:102CC0008219521ED2B2C9B2C0B200F0AFFA2C20A3
:102CD00000F002FB002027E00AFB09F0B0FBF8F04F
:102CE00080B268430BEB40010020124A13E000BFA2
:102CF00000FB05F3B3FBF4F39BB201EB430C9CF830
:102D000001C002F810C002EB400C11F81330401C57
:102D10008CF8013080B2B042EAD37100054800F06F
:102D2000FBFA0AF1010080B28246B842D4D3BDE872
:102D3000F09F0000380700202DE9F0411E46069B59
:102D4000002415461F0A134ADBB207E002F814708C
:102D500002EB440C641C8CF80130A4B2AC42F5D3F5
:102D60008A19521ED3B24219521ED2B2C9B2C0B28F
:102D700000F05CFA2C2000F0AFFA00246D0005E0B2
:102D80002946044800F0C8FA641CA4B2B442F7D340
:102D9000BDE8F081380200202DE9FF4F87B0140014
:102DA000DDE915656FD0002E6DD0B08900286AD09E
:102DB0004FF001094FF0020A002D64D0A7E000BFD8
:102DC000B6F80C8000270D2809D00A2809D08028E1
:102DD0001AD30621B1EB501F0AD1514615E0641CED
:102DE00095E0002007900898284480B20890F6E704
:102DF0000E21B1EB101F01D1032106E01E21B1EB22
:102E0000D00F01D1042100E049468DF818100120AF
:102E100003E0225C4AB1401CC0B28842F9D3217859
:102E2000802920D2706820B902E08DF81890F6E76A
:102E30003A488346FDF741FA90B1A0EB0B01B08907
:102E40004FEA550B4FEA500E0EF10700C00800295B
:102E500025DB32681AB301FB08F101FB00271EE0F5
:102E60004FF0FF31EBE706AA21463046FFF712FD8F
:102E7000B6F80CE001000EF10700AB464FEAD000B7
:102E800002D04F680BE046E02178802907D39DF8F7
:102E90001810012903D1617809B18DF818A0BBF190
:102EA000000F38D0002D36D007995944802907D912
:102EB000079929B1002107910899294489B20891FD
:102EC00008992944A02926D8B2891499AA420A9AB5
:102ED0000AD100970391CDE90102DDE907014346DC
:102EE0007246FFF7C7FD0BE0CDE90421CDE9007084
:102EF000CDE902B5DDE9070143467246FFF722FE40
:102F00000798584480B207909DF818000444207830
:102F100000287FF455AF0BB0BDE8F08FE41B01082B
:102F2000FEB508AF97E870008DE87000FFF734FF3A
:102F3000FEBD2DE9FE4F9B46DDE90D75DDF830A0A5
:102F400014008846814636D0002F34D039780029C5
:102F500031D0787800282ED0002D2CD0694301EB99
:102F60005001B1FBF0F00604360C21D101261FE020
:102F70000D2A1CD00A2A20D009EB0600802805D98A
:102F800008EB05004FF000091FFA80F808EB050078
:102F9000A02810D8CDF800A0CDE901755B464146C8
:102FA0004846FFF7C7FC09EB06001FFA80F9641CCE
:102FB0002278002ADCD1BDE8FE8F08EB05004FF037
:102FC00000091FFA80F8F2E708B500210090A0235D
:102FD00080220846FFF7B0FE08BD10B500F00EF9DC
:102FE000112000F079F97820FDF7C0FFB12000F042
:102FF00073F9012000F050F92C2000F04DF92D203C
:1030000000F04AF9B22000F067F9012000F044F91D
:103010002C2000F041F92D2000F03EF9B32000F003
:103020005BF9012000F038F92C2000F035F92D2053
:1030300000F032F9012000F02FF92C2000F02CF9DB
:103040002D2000F029F9B42000F046F9072000F007
:1030500023F9C02000F040F9A22000F01DF9022061
:1030600000F01AF9842000F017F9C12000F034F9BB
:10307000C52000F011F9C22000F02EF90A2000F05E
:103080000BF9002000F008F9C32000F025F98A2090
:1030900000F002F92A2000F0FFF8C42000F01CF92B
:1030A0008A2000F0F9F8EE2000F0F6F8C52000F0D4
:1030B00013F90E2000F0F0F8202000F00DF93A206E
:1030C00000F00AF9052000F0E7F82A2000F004F9E2
:1030D000002000F0E1F8002000F0DEF8002000F011
:1030E000DBF87F2000F0D8F82B2000F0F5F8002066
:1030F00000F0D2F8002000F0CFF8002000F0CCF86B
:103100009F2000F0C9F8E02000F0E6F8022000F06F
:10311000C3F81C2000F0C0F8072000F0BDF8122012
:1031200000F0BAF8372000F0B7F8322000F0B4F819
:10313000292000F0B1F82D2000F0AEF8292000F091
:10314000ABF8252000F0A8F82B2000F0A5F83920D6
:1031500000F0A2F8002000F09FF8012000F09CF899
:10316000032000F099F8102000F096F8E12000F01C
:10317000B3F8032000F090F81D2000F08DF8072030
:1031800000F08AF8062000F087F82E2000F084F87E
:103190002C2000F081F8292000F07EF82D2000F08E
:1031A0007BF82E2000F078F82E2000F075F83720FC
:1031B00000F072F83F2000F06FF8002000F06CF88B
:1031C000002000F069F8022000F066F8102000F0FE
:1031D00063F8132000F080F80A20FDF7C7FE2920CD
:1031E00000F07AF80A20FDF7C1FE002000F03CF85C
:1031F000BDE810400020FFF7E7BE000070B50A4DA3
:103200004FF48054002221462846FDF7B6FF642083
:10321000FDF7ACFE012221462846FDF7AEFFBDE8D2
:1032200070406420FDF7A2BE00040240F8B50746D6
:103230001C4615460E462A2000F04EF8002000904D
:103240008DF801708DF803500421684600F064F891
:103250002B2000F041F88DF801608DF80340042127
:10326000684600F059F8F8BD10B5002430B10128C7
:1032700006D0022807D0032805D103E0C02402E0CD
:10328000A02400E06024362000F026F82046BDE8A7
:10329000104000F001B8000031B50D4C012251037F
:1032A0002046FDF76AFF4FF480450022294620465C
:1032B000FDF763FF4FF0FF33012269460548FEF733
:1032C00073FC012229462046FDF757FF38BD000058
:1032D00000040240C000002031B50D4C00224FF424
:1032E00000512046FDF749FF4FF480450022294652
:1032F0002046FDF742FF4FF0FF33012269460548A3
:10330000FEF752FC012229462046FDF736FF38BD64
:1033100000040240C00000202DE9F0410E4E0C4692
:103320000546012251033046FDF727FF4FF4804741
:10333000002239463046FDF720FFA2B24FF0FF339E
:1033400029460648FEF730FC39463046BDE8F041D4
:103350000122FDF712BF000000040240C00000205F
:103360007047704730B593B030216846FCF788FF4E
:1033700014210CA8FCF784FF1C480024016841F0CC
:1033800080510160006800F0805011901848016879
:1033900041F4404101600068022500F44040119072
:1033A0000120039010200490009506950820CDE997
:1033B00007406420CDE9090504200B906846FEF71C
:1033C000ABF908B172B6FEE70F20CDE90C054FF45A
:1033D0008050CDE90E4003210CA81094FEF790F820
:1033E000002801D072B6FEE713B030BD403802406D
:1033F000007000400248016841F4700101607047AC
:1034000088ED00E00148FEF7DCBD0000F00100207F
:10341000F0B502681F4B204C204D214E4FF0804CE0
:10342000984207D0604505D0A04203D0A84201D001
:10343000B04203D122F070074A683A43984210D054
:1034400060450ED0A0420CD0A8420AD0B04208D0AD
:10345000144CA04205D0144CA04202D0134CA04200
:1034600003D122F44074CA6822434C6922F08002DE
:1034700022438C68C4620C688462984201D1096955
:103480000163016841F004010160012141610260B2
:10349000F0BD0000000001400004004000080040B2
:1034A000000C004000400140004401400048014041
:1034B00010B5846842EA032224F47F440A4322437D
:1034C000826010BD826822F070020A4342F0070158
:1034D0008160704710B5036A046A24F00104046235
:1034E000846924F0F00444EA021423F00A020A4337
:1034F0008461026210BD10B5036A046A24F01004EE
:103500000462846923F0A00324F4704444EA023284
:1035100043EA01118261016210BD10B5806B002188
:10352000C185FEF7F5FD10BD01680C3151E8002F93
:1035300022F4907241E80023002BF5D10168143188
:1035400051E8002F22F0010241E80023002BF5D1C1
:10355000016B012909D101680C3151E8002F22F0DB
:10356000100241E80023002BF5D1202180F8421001
:1035700000210163704708B590F84210222901D05C
:10358000022008BD82684FF480539A4201D101693C
:1035900021B1816A9A421BD04AB10AE00268816A6D
:1035A0005268C2F308020A80816A891C08E0026935
:1035B00072B10268526802F07F020A70816A491C87
:1035C0008162C18D491E0904090CC18503D01BE02D
:1035D00002685268F1E70168CA6822F02002CA60F6
:1035E0000168CA6822F48072CA6001684A6922F0E0
:1035F00001024A61202180F8421000214163026BE0
:10360000012A03D0FEF764FF002008BD01630168B2
:103610000C3151E8002F22F0100241E80023002B6A
:10362000F5D101680A68D20602D50A684968009196
:10363000818DFEF76CFDE7E770B50446006801690F
:10364000E26821F44051114301612169A068E269F7
:1036500008436169114308432168CA6849F20C6351
:103660009A430243CA6020684169A26921F440710B
:103670001143416131492068884202D03049884273
:1036800002D1FEF707F801E0FDF7F4FFE26900233D
:10369000192164253226B2F5004F626828D0A0FBBC
:1036A0000101930F9200FCF793FD0146B0FBF5F08A
:1036B0006FF01802504301EB800006EB0010B0FBE6
:1036C000F5F000F0F002B1FBF5F002EB0012B1FBF7
:1036D000F5F06FF01803584301EB800006EB001083
:1036E000B0FBF5F000F00F0021681044886070BD59
:1036F000A0FB010192185B41FCF76AFD0146B0FB9B
:10370000F5F00201B1FBF5F06FF01803584301EB3F
:10371000800006EBC000B0FBF5F000F0F80002EB13
:103720004002B1FBF5F0584301EB800006EBC0000E
:10373000B0FBF5F000F00700D6E7000000100140F4
:103740000014014081628285C285002141642221EA
:1037500080F84210016921B10168CA6842F48072A0
:10376000CA6001684A6942F001024A610068C168A2
:1037700041F02001C160002070472DE9F8439846D0
:1037800017460D460446089E24E0701C22D0FDF723
:10379000F9FCA0EB0800B0421AD8CEB12068C1688D
:1037A000490717D5802D15D0402D13D00168C94386
:1037B00009070FD401680025406800902046FFF7F4
:1037C000B3FE0820606484F840500120BDE8F8830F
:1037D0000320FBE72068006835EA000004D00020E1
:1037E000B842D2D00020F1E70120F9E708B5002067
:1037F000A023802201460090FFF79EFA40F2FF20AE
:10380000032100904C237A220846FFF795FA4FF6E1
:10381000E520009048233A2255210320FFF78CFA37
:103820004BF63F70009048233A2255214320FFF782
:1038300083FA08BD30B414460B0018D0062C16D3FA
:10384000B8B10178A9B142789AB182783A2A10D1F8
:10385000C27872B1027962B1197041785970202131
:103860009970C178D970007918710020587130BCF6
:103870007047214630BC02A2184600F01DB8000077
:103880002D2D202D2D0000000148FEF743BC000027
:10389000A8010020FEE700000FB4054B10B503A9F6
:1038A000044A029800F044F810BC5DF814FB0000D4
:1038B000013D0008640000200FB41CB50246002042
:1038C00007AC00290BD0491ECDE90021054B6A4603
:1038D0002146069800F02CF8009A002111701CBCBB
:1038E0005DF814FB733C00080907090E002804DB8F
:1038F00000F1E02080F80014704700F00F0000F1A4
:10390000E02080F8141D70470048704768000020D0
:1039100002E008C8121F08C1002AFAD17047704798
:10392000002001E001C1121F002AFBD170470000F6
:103930002DE9FF4F8BB088460546002606E0252876
:103940000BD0DDE90D1290476D1C761C28780028FD
:10395000F5D10FB03046BDE8F08F0024A146A24655
:103960000122AE4900E0044315F8013F203B02FA72
:1039700003F00842F7D128782A2810D06FF02F02E0
:103980002878A0F13001092915D809EB890102EB4B
:10399000410144F0020400EB01096D1CF0E758F806
:1039A000041B5FEA010903D544F40054C9F100097E
:1039B00044F002046D1C28782E2817D115F8010F49
:1039C00044F004042A280ED06FF02F022878A0F1CA
:1039D000300109290AD80AEB8A0102EB410100EB08
:1039E000010A6D1CF2E758F804AB6D1C28786C28AE
:1039F0000FD006DC4C2817D068280DD06A2814D1C7
:103A000004E0742810D07A280FD10DE044F400149B
:103A10000AE044F4801401E044F4401469788142DF
:103A200002D104F580146D1C6D1C2878692865D0BE
:103A300006DC00288DD0632827D0642806D15DE0FD
:103A40006E2808D073282AD0752877D0DDE90D12AA
:103A50009047761CE0E0C4F30250022809D0032806
:103A60000DD0D8F8001004280DD00E6008F104081D
:103A7000D2E0D8F80010F217C1E90062F6E7D8F8F2
:103A800000100E80F2E70E70F0E718F8041B8DF8B6
:103A9000001000208DF80100EB46012003E058F8EB
:103AA00004BB4FF0FF3061074FF0000701D40AE07C
:103AB0007F1C57450DDA8742FADB1BF807100029F7
:103AC000F6D106E07F1C8742FCDB1BF807100029BB
:103AD000F8D1DDE90D23A9EB07008146214600F06E
:103AE000B1F83044C61904E0DDE90D121BF8010BF2
:103AF00090477F1EF8D22146484688E058F8040BCC
:103B0000C4F302514FF00A0B032900D100B204297B
:103B100000D140B2002802DA40422D2102E0210506
:103B200005D52B218DF82410012104E006E0E107E2
:103B300010D02021F6E708AF089113E058F8040BE5
:103B4000C4F302514FF00A0B032900D180B20429BB
:103B500000D1C0B20021EEE75946FCF7D9FB303165
:103B600007F8011D0028F7D1ADEB070000F1200B8D
:103B7000600702D524F4803401E04FF0010ADA45F1
:103B800002DDAAEB0B0000E00020824600EB0B01F7
:103B900008980144A9EB01000A90E00306D4DDE98E
:103BA0000D2321460A9800F04DF806444FF0000915
:103BB00008E009A911F80900DDE90D12904709F1A3
:103BC0000109761C08998945F3DBE0030CD5DDE992
:103BD0000D2321460A9800F035F8064404E0DDE99B
:103BE0000D1230209047761CBAF10001AAF1010AAB
:103BF000F5DC05E0DDE90D1217F8010B9047761CA6
:103C0000BBF10001ABF1010BF4DC0A982146DDE9C0
:103C10000D2300F005F806446D1C97E60928010005
:103C20002DE9F041044600251E461746880404D4B9
:103C300005E039462020B0476D1C641EF9D52846A2
:103C4000BDE8F0812DE9F041044600251E4690466E
:103C5000C80301D5302700E02027880404D505E0FB
:103C600041463846B0476D1C641EF9D52846BDE86C
:103C7000F0814A68002A06D00A68531C0B60107055
:103C80004868401E48607047F0B5194D87B02878E5
:103C900010B1002007B0F0BD164C17494FF0FF36A9
:103CA000206888421ED105A96846FDF7C3FCFDF7D0
:103CB000E1FC039901B1400010490027B0FBF1F08D
:103CC000401EC4E901074FF6FF70C4E90307094825
:103CD000A761FEF75DF828B9206847620548FEF73E
:103CE00099F808B13046D5E701202870D1E70000E7
:103CF00054000020180100200008004040420F003E
:103D000013B54FF0FF33012269460248FEF7E2FB8C
:103D100000981CBD6001002090B0FDF739FBFFF753
:103D200021FBFEF729FCFEF791FCFEF76FFCFEF786
:103D3000E1FCFEF7FBFCFEF7ABFCFFF74EF9FCF7EE
:103D4000C9FBA148FCF724FEFFF750FDDFF87C9289
:103D50009F4C4FF6FF7B4FF4116A0E2647F230520C
:103D60009CA19FA0FCF766FC051E1CD064DA974856
:103D70009CA210211430FFF79FFD94489CA21021B3
:103D80002430FFF799FD91489AA210213430FFF7B3
:103D900093FD0021C9F80010491E99A0C9F804102C
:103DA000FFF77AFD60E0FDF7EDF9D9F808104D4610
:103DB000401A42F21071884235D3FDF7E3F9834986
:103DC000A860091D10200A1F01F11003CDE90202AD
:103DD000CDE9000304910246203320318CA0FCF78A
:103DE000F9FCC8B179488EA210211430FFF764FDA8
:103DF00076487FA210212430FFF75EFD73487DA234
:103E000010213430FFF758FD00202860401E686004
:103E100085A0FFF741FD06E06C4AD5E90031143278
:103E200086A0FFF739FDFFF7E1FC6DA38CA22021EE
:103E300005A8FFF741FD22E064488BA21021143051
:103E4000FFF73AFD61486AA210212430FFF734FDE4
:103E50005E4868A210213430FFF72EFD0021C9F81A
:103E60000010491EC9F80410FFF7C0FC002D01DA4C
:103E70007FA200E081A2202105A8FFF71DFD40F2EE
:103E8000FF250A200095CDE901405B4605AA0821DF
:103E90000620FFF74EF84D4808220DA93430FFF7F1
:103EA000C9FCDFF8E48122200095CDE90180474676
:103EB00053460DAA16210C20FFF732F80B2000956F
:103EC000CDE90140414A5B4634323E210620FFF7EE
:103ED00030F83E4ACDE900575B4624323C21482069
:103EE0000296FFF71DF84FF6E525CDE900570023B0
:103EF00066A2582106200296FFF712F833491031C6
:103F0000081FFCF705FBE8B30C200095CDE9014044
:103F1000002362A278210820FFF70BF84F46D9F85A
:103F20000400FCF77FFF054640464BF63F78CDF88E
:103F30000080CDE90106254A534624325821462007
:103F4000FEF7EEFF57A2202105A83B68FFF7B4FC5F
:103F50001C20CDF80080CDE90140534605AA6A2116
:103F60004820FEF7E6FF18216868CDE900016B885C
:103F70002A8880215220FEF75FFE4FF47A70FCF70A
:103F8000F5FFEBE6FFE747A2202105A8D9F810309E
:103F9000FFF792FCCDE900541827002305AA6B21F6
:103FA00008200297FEF7C5FF3FA2202105A8D9F8F7
:103FB0000C30FFF781FCCDE900540023842105AAD1
:103FC00008200297A8E70000A801002000000020B8
:103FD000D41B010831323334353637380000000045
:103FE0006868680057494649204552520000000061
:103FF0002D2D00002D2D3A2D2D3A2D2D00000000E5
:104000005B574946495D204552520D0A00000000A9
:1040100057534B4D53334B4245324A4D000000003D
:1040200041504920455252005B5745415448455242
:104030005D20415049204552520D0A005B574541D1
:10404000544845525D20636F64653D256420746566
:1040500078743D25732074656D703D25640D0A00EC
:104060005769466920257300574946492E2E2E0070
:104070005769466920455252000000005769466959
:10408000202E2E2E00000000E80C0108E5AEA4E56D
:104090008685E78EAFE5A2830000000044485420E7
:1040A0004552520025644300256425250000000088
:1040B00070B5051E09DD00244FF47A7603E0304622
:1040C00000F004F8641CAC42F9DB70BD2DE9F0414E
:1040D000041E19DDFFF7D8FD002815D10B484FF459
:1040E00080356E1E00680DE0AC4201D3314600E021
:1040F0002146426A8BB292B2476ABF1ABFB29F4250
:10410000FAD3641A002CEFD1BDE8F0811801002029
:104110000000000000000000010203040607080977
:10412000000000000102030429FC29FC29FC49FCD1
:1041300029FC29FC2AFC0AFC0AFC2AFC29FC49FC73
:1041400049FC29FC29FC29FC29FC29FC29FC29FC27
:1041500029FC48FC48FC48FC29FC29FC29FC4AFCB9
:104160000AFC0AFC29FC29FC29FC2AFC49FC28FC45
:1041700049FC08FC49FC29FC29FC29FC48FC48FCBA
:1041800049FC49FC48FC28FC29FC29FC29FC29FCA9
:1041900029FC29FC29FC29FC49FC49FC49FC49FC77
:1041A00029FC29FC29FC29FC29FC49FC49FC29FCA7
:1041B00029FC29FC29FC29FC29FC29FC29FC49FCB7
:1041C00048FC48FC49FC49FC49FC4AFCE9FB2AFC48
:1041D00049FC29FC4AFC29FC29FC29FC29FC49FC56
:1041E00029FC29FC29FC29FC49FC29FC49FC49FC47
:1041F00029FC28FC29FC29FC29FC29FC29FC29FC98
:1042000029FC29FC49FC49F449F449F449FC29FCFE
:1042100029FC29FC49FC49FC29FC29FC29FC29FC36
:1042200029FC29FC29FC2AFC29FC29FC49FC49FC25
:1042300009FC29FC28FC48FC29FC49FC28FC49FC19
:1042400049FC49FC49FC29FC09FC29FC28FC28FC08
:1042500049FC49FC29FC29FC29FC29FC2AFC29FCF5
:1042600029FC29FC29FC29FC29FC29FC28FC29FC27
:1042700049FC49FC49F449FC49FC28FC28FC28FC81
:1042800048FC48FC49FC29FC29FC29FC29FC29FCA8
:1042900029FC29FC29FC29FC29FC29FC4AFC29FCD5
:1042A00029FC28FC68FC47FC28FC48FC28FC28FC6E
:1042B00028FC29FC6AFC29FC47FC05F428FC49FC85
:1042C00029FC2AFC29FC29FC2AFC2AFC29FC49FCA3
:1042D00029FC29FC29FC29FC29FC29FC29FC29FCB6
:1042E00029FC29FC29FC29FC28FC28FC48FC48FC6A
:1042F00048FC48FC29FC29FC28FC28FC48FC28FC3C
:1043000029FC29FC29FC29FC28FC08F469FC28FC70
:1043100066FC46F448FC48FC28FC49FC29FC29FCC6
:1043200049FC47FC05FD87FD26F428FC29FC2AFCF6
:1043300029FC29FC29FC29FC49FC48FC49FC49FCD6
:1043400029FC29FC29FC29FC29FC29FC29FC29FC45
:1043500029FC29FC29FC28FC48FC48FC48FC48FCBA
:1043600029FC29FC28FC28FC48FC48FC0AFC0AFC27
:1043700029FC49FC69FC29FC08F448FC69FD27FD7F
:1043800067F448FC49FC28FC28FC29FC29F467F464
:10439000C3FC23FD25F428FC29FC29FC29FC29FC6D
:1043A00029FC49FC48FC48FC48FC48FC49FC29FC29
:1043B00029FC29FC29FC29FC29FC29FC29FC29FCD5
:1043C00029FC29FC29FC29FC29FC29FC29FC29FCC5
:1043D00029FC29FC29FC29FC0AFC0AFC29FC49FCD3
:1043E00008F449FC49FC68FC26FDE4FC24EC47F495
:1043F00028FC29FC49FC69FC49F405EC65FDE4FC5A
:1044000046F429FC49FC29FC29FC29FC49FC49FC0F
:1044100048FC48FC48FC48FC49FC49FC2AFC2AFCB6
:1044200029FC29FC29FC49FC29FC29FC29FC29FC44
:1044300029FC29FC29FC29FC29FC29FC29FC29FC54
:1044400029FC29FC2AFC2AFC29FC49FC49FC29FC02
:1044500049FC27F423EC46FD07FD66F448FC29FCE3
:1044600048FC48F468F462D367FDE1DB67FC49FC73
:1044700029FC29FC29FC49FC48FC48FC48FC48FC78
:1044800048FC48FC49FC49FC2AFC29FC29FC49FC65
:1044900048FC48FC48FC48FC29FC29FC2AFC29FC77
:1044A0002AFC2AFC2AFC4AFC09FC4AFC29FC49FC9F
:1044B00029FC29FC49FC29FC29FC29FC29FC49FC94
:1044C00066FCE6FC06FD24EC47FC48FC47FC46F491
:1044D00067F425EC29FD04E447F469FC29FC29FC78
:1044E0004AFC28FC67F426F406F428FC48FC48FC47
:1044F00029FC49FC29FC29FC29FC28FC48FC48FC37
:1045000048FC48FC29FC29FC2AFC4AFC2AFC4AFC01
:104510004AFC29F46AFC09F408FC28F469FC49F413
:1045200029FC49FC49FC49FC29FC49FC47FC04F4F2
:1045300047FD43EC24F425F481DBA5FCC6FC81D3C4
:1045400085F404E466F447F428F449FC28F468FC94
:1045500044EC48FDACFD48FC07F469FC28FC28FC51
:1045600049FC29FC29FC28FC28FC28FC28FC29FC07
:1045700029FC4AFC29FC09FC08FC49FC28FC28FC15
:1045800028FC29FC69FC48FC49FC49FC49FC28FC46
:1045900028FC48FC69FC28F427FC66FC64FC82FCCF
:1045A00045FDC3FCE3FCC2F4C2F403FDC2F465FDA7
:1045B00025FD02E466FC47F488FC25EC25FD05FD9D
:1045C00026F448FC49FC28FC49FC29FC49FC49FC30
:1045D00029FC29FC09FC09FC29FC29FC29FC29FCF3
:1045E00029FC49FC49FC28FC28FC49FC28FC49FC26
:1045F00028FC27FC48FCE6EB48FC48FC27FC48FC70
:1046000027F467FC66FCE6FCC4FCC2FCA1FCC1FC10
:10461000C0FCC0FCC0F4E1FCC0F4C1FCA1FC04FD82
:1046200027FD65F403EC48FD25FD83F467FC49FC98
:1046300028FC28FC49FC49FC48FC48FC29FC29FCD6
:104640000AFC2AFC2AFC29FC49FC28F449FC49FC08
:1046500029FC09FC29FC09FC29FC08FC48FC68FC35
:10466000C4EB8BFDE7FC24F467FC27F467FC25F41E
:1046700005FDA2FCA1FCC1FCC0FCC0FCC1FCC0FC4F
:10468000C0FCC0FCC0FCC1FC81F4C2FCA3FC05FD65
:1046900042ECE6FC65F466F448FC08F429FC69FC8D
:1046A00028FC08FC48FC28FC29FC29FC2AFC2AFCE4
:1046B0002AFC49FC28F449FC49FC29FC6AFC4BF41F
:1046C0004BEC8CEC8CEC6CE48CDC8BDCAADC88DCBA
:1046D000A7DC29F5A9F447EC45F447FDA2FCC1FC91
:1046E000E1FCA0F4A0FCA0FCC1FCA0FCA0FCA0FC90
:1046F000E1FCA0FCC1FCC2FCA1F481F465FDA4FCBA
:1047000087FC48F449FC69FC49FC08FC49FC49FC6D
:1047100028FC29FC29FC29FC2AFC29FC29FC28FC72
:1047200048FC48FC08F44AF46CE48DD48EBC11BDFE
:10473000D2A4DADEDAD6FAD698C651A512CE4DC585
:104740000BDD46D484F4A2FCA1FCC0FC80F4C1FCC7
:10475000E2FCA0F4C1FCA0FCA1FCA0FCA0FCC1FCFC
:10476000C1FC80F4E2FCC1FCA1F425FD46F428F470
:1047700028FC28FC29FC49FC49FC29FC29FC29FCD3
:1047800029FC29FC29FC49FC49FC28FC28FC29FCC3
:104790004BECAEDC8EBC97E67CEF3CD73EC7DDAE83
:1047A000FDA6FDA6FDA63DB7FABED7CE53D6CFDDFA
:1047B000A7D4A4E4C2F4C1FCC1FCA1FCA1FCC1FCCF
:1047C000A0FCA0FCC1FCC1FCA0FCA0FCA1FCC1FCA5
:1047D000A1FCC1FCC1FC24FD24EC48FC49FC49FCC3
:1047E00029FC29FC29FC49FC29FC29FC49FC29FC61
:1047F00029FC29FC29FC49FC29FC4BE4AFC4DBE67D
:104800005EDFBCB6DDB6DDAEFFA6FFA6FFA61EA727
:104810001EA71EA71DA7FDAEDCAEFBBE97C66EC5CC
:10482000A5DCC2F4A1FCA0FCC0FCC1FCA0FCA0FC67
:10483000A0FCC0FC80FCC1FCA1FCA2FCA2FCA1FC71
:10484000C1FCA2F406FD66F448FC29FC09FC29FC25
:1048500029FC29FC29FC49FC49FC29FC4AFC29FCCF
:1048600049FC29EC6BE430D55DEFDCBEFEA6FF9E73
:10487000FF9E3FA7FF9EFF9E1F9F1F9F1F9F1F9F83
:104880001F9F1F9F3F9FDE9EDCA6D8CEAED5A5D42E
:10489000E3F4A1FCA0FCC0FCC1FCC1FCA0FCA0FC9A
:1048A000A0FCA0FCC1FCA1FCA1FCC1FCA1F4C2FCC9
:1048B00046FD23EC46F446F467FC06F406EC48FC9F
:1048C00029FC08F449FC49FCE8FB29FC29F48CE4A8
:1048D00051C59DEF7BAEFEAE1FA7FF9E3FA7FF9E7B
:1048E000FF9E1F9F1F9F1F9F1FA71FA71F9F1F9FE9
:1048F000FF9E1FA7FEA6FCB6F9C6F0C5C6D4A3F45A
:10490000A1FCA1FCA1F4E2FCA1FCA1FCC1FCC0FC47
:10491000C0FCA0FCA0FCC1FCC1FCA1F404FD42EC65
:1049200042EC41E424FD25FDC9FD23E449FC49FC9A
:1049300029FC09FC49FC2AFC4BE4EFCC9CE7DCAEEB
:104940001EAF3FA73F9F1F9FFF9EFF9EFFA6FF9E9C
:104950001F9F1F9F1F9F1FA71FA71F9FFF9E1FA770
:104960001FA7DD9E1DA7F9C6AECD85D4A3FCA1FC73
:10497000A1F4C1F4A2FCC1FCC1FCA0FCA0FCC0FCE1
:10498000A0FCA0FCC1FCA1F4C3FC21E4E4F466FD9E
:1049900065FD66FDC5F423E448FC29FC09FC2AFCFE
:1049A0002AFC2BE4CFC47CEFBBAEFEA61F9FFF9E6C
:1049B000FF9E1F9F3FA7FF9EFFA6FFA61F9F1F9F53
:1049C0001F9F1F9F1F9F1F9F1F9F1F9FFF9E1FA710
:1049D000FE9E1CAFD8C66EC584E4A1FCC1FCC1F428
:1049E000C1FCC1FCC1FCC1FCA0FCA0FCC1FCA1FC41
:1049F000A1F4E2FC03FD80CB66F4C5E306EC27ECF2
:104A000068FC67F449FC49FC4AFC2AFC2AF4AEE441
:104A1000F6CD3DC71EA73F9F1F9F1F9F3FA71F9F0C
:104A2000FF9EFF9EFFA6FFA61F9F1F9F1F9F1F9F0A
:104A3000FF9EFFA6FF9E1F9F1F9F1F9F1F9FFE9E03
:104A4000FCAE96CEA7D482F4C2FCC1F4C0FCC0FC7C
:104A5000A0FCC1FCA1FCA1FCA1FCA1FCA1FCE2FC0E
:104A600004FDA1D368FC09F44AFC4AFC29FC28FC9B
:104A700048FC48FC29FC29F46BF46EC47EE7DEA6F2
:104A8000FF9E1F9FDF9EFF9EFF9E1FA7FF9E1FA7EB
:104A9000FFA6FFA61F9F1F9F1F9F1F9F1F9FFFA671
:104AA0001FA7DF9E1F9F1F9FFF9E1FA71F9FFABE6E
:104AB0006DD5A5E4A3FCA1FCA0FCA0FCA0FCC1FC5E
:104AC000A1FCA1FCA0FCA0FCC1FCA1FCE3FC23EC2C
:104AD00027FC4AFC08FC29FC29FC28FC49FC28FC92
:104AE00028FC4AF46CE493DD1EC7FFA61F9F1F9F9E
:104AF0001F9FFF9EFFA6FFA6FF9E1FA71FA7FFA643
:104B00001F9F1F9F1F9F1F9FFFA6FFA6FFA61FA7F8
:104B1000FF9EFF9E1FA7FF9E3F9FFCB653D6C8D4A3
:104B2000A4ECA2FC81FCC1FCC0FCA0FCA1FCA0FC8C
:104B3000A0FCC1FCA0FCA1FC04FDC2E348FC29FCD4
:104B400028FC28FC29FC49FC69FC08F448FC4AECD8
:104B50008DCC3BFFDDBEFFA61F9F1F9F1F9FFFA6A3
:104B6000FFA6FFA6FFA6FFA6FFA61FA71F9FFF9EEB
:104B7000FF9EFFA61FA7FFA6FFA61FA71F9F1F9FA1
:104B80001FA71FA7FF9EFCAED7CE6DC5A5DCA3F463
:104B900083F482F4A1FCC0FCC1FCA1FCC1FCA0FC1C
:104BA000A0FCA2FC47FD25F448FC29FC08FC49FCBC
:104BB00029FC09FC08F469FC29FC6BE48FBC3CE788
:104BC000DDB61FA71F9F1F9FFF9EFF9EFFA6FFA68C
:104BD000FFA61FA71FA7FF9EFF9E1F9F1FA71FA720
:104BE000FF9E1FA71FA7FF9EFF9EFF9EFFA6FFA67B
:104BF0001FA73EA71BB7F3AD2CBD2ACD4BD52AD599
:104C000028D5C6D4C5D4C4E4E3F4C2F4A1FCC2FCE4
:104C100063F466F447F468FC48FC29FC29FC4AFC70
:104C200029FC29FC49FC8CDC74C51DC7FEA61F9716
:104C30001F9FFFA61FA71FA71FA7FFA61F9FFF9EBF
:104C4000FF9E1FA71FA71FA7FF9E1F9F1F9F1FA796
:104C50001F9F1F9F1FA7FFA6FFA61FA71F9FBF8EF7
:104C60009D865B865A8E598E398E3996179E15A66B
:104C7000D1B52BBDA6D4C3ECA1F423FDA4F443EC21
:104C800024EC66F448FC49FC49FC49FC09FC4AFC5C
:104C900049FC6CD474B53EBF1F9F3F9F3F9F3FA709
:104CA0003F9F3F9F3F9F3F9F3F9F3F9F1FA7FF9E6D
:104CB000FF9E1F9F1F9F1F9FFF9E1F9FFF9E3F9F47
:104CC0001F9FFF9E1FA7BE963E7E7F7E5E767F76ED
:104CD0009F769F6E9F769F767F765C86389635AE00
:104CE000AFBD09CD06E522DC23DC89FD06FD27FDED
:104CF00026EC48F428F449FC2AFC09FC29FC8CE445
:104D000094B55EBFFF9E3F9FFF8EDF8E9F865F7EC6
:104D10005F7E7F7EBF86FF8E1F971F9F1F9FFF9E18
:104D2000FF9E1F9F1FA7FF9E1F9FFF963F9F1F9FD6
:104D30007E7E3E767F7E5F7E7F7E7F7E5F765F7645
:104D40007F7E7F7E5F7E5E765D865C865A8E16A64F
:104D5000D1D5AAD489E446ECE6FCC5FCA9FD04EC57
:104D600048F448F408FC29FC69FC8CDC95AD5FBF75
:104D7000DF967E7E5E765E767F7E7F7E7F7E7F7E26
:104D80005F765E765E7EBF8E1F9F1F9FFF9EFF9E9B
:104D9000FFA61F9FFF9E3F9FFF965E7E5F767F76FA
:104DA0007F7E7F7E5F7E7F7E7F7E7F7E5F7E5F7E7B
:104DB0007F7E9F7E7F7E7F769F765C8679BE30BDCC
:104DC0006BD469ECA6F485FCC6FCE4EB27F449FC43
:104DD00028FC48FC28F48DDC56A59E9E1E7E7F7E16
:104DE0007F7E5F7E5F7E5F7E5F7E5F7E7F7E7F7683
:104DF0007F7E3E765F7EDF961FA7FFA6DF9E1F9F0A
:104E00003FA7DF965E7E5F769F7E7F7E5F767F7EAA
:104E10007F7E5F7E5F7E5F7E5F7E5F7E5F7E5F7E8A
:104E20005F7E7F7E5F7E5E7E3C86FBC6CEC48AE46C
:104E300067F446F468FC48FC49FC29FC48FC49F44A
:104E40006BE48FC43AB65E8E5F7E7F7E5F7E5F7E50
:104E50005F7E5F7E5F7E5F7E5F7E7F767F7E7F7E12
:104E60005F7E5E7E9F961FA73FA7FF9EFF9E9E8E42
:104E70003E7E5F767F767F767F767F767F7E5F7EF3
:104E80007F7E7F7E7F767F767F7E5F7E7F7E3F7EAA
:104E90005F7E7F7E7F763B8ED9E68DCC6AEC48FCC8
:104EA00029FC29FC29FC29FC49FC6BECD0C4DBD68D
:104EB0003C8E7F7E5F7E7F7E7F7E7F7E7F7E5F7E7D
:104EC0005F7E5F7E5F7E5F7E7F7E7F7E5F7E5F7EBA
:104ED0003E7EDF8E3F9F1F9FBF8E5E7E5E7E7F7E0B
:104EE0007F7E5F765F7E7F7E5F7E5F7E7F7E7F766A
:104EF0007F767F767F7E5F7E7F7E5F7E7F7E5F7E3A
:104F00007F7E5D869CAED2A48CDC49FC29FC49FCEA
:104F100049FC48FC29F4ADDC38C63B967E865F76BA
:104F20007F7E5F7E7F7E7F7E7F7E7F7E7F7E7F7EB9
:104F30007F7E5F7E7F7E5F767F7E7F7E5F7E7F7EF1
:104F4000FF963F9F7F7E5E7E5F7E7F7E7F7E5F7E61
:104F50007F7E5F7E5F7E5F7E7F767F767F767F76E9
:104F60007F7E5F7E5F767F7E5F7E5F7E7F7E5F7E01
:104F70005D86DCC68ECC4AF429FC28FC48FC48FC43
:104F80008CEC8EBCFCBE7D865E767F7E3F767F7E1F
:104F90005F7E5F7E7F767F767F767F767F7E5F7EA9
:104FA0007F7E5F767F7E7F7E5F7E3E76BF861F97A9
:104FB0003E765F7E7F7E5F7E7F7E7F7E7F7E5F7EB2
:104FC0005F7E5F7E7F767F767F767F767F767F7669
:104FD0007F767F7E7F7E7F7E5F767F7E3D761EBF83
:104FE0006EB44BE44AFC29FC28FC48FC8ECCF5CD81
:104FF0007C967F765F769F865F7E5F7E5F7E5F7E3C
:105000007F767F767F767F767F7E7F7E7F7E7F7ED8
:105010005F7E7F7E5F7E7F7E7F7E9F863F767F7E08
:105020007F7E5F7E5F7E7F7E7F7E7F7E5F7E5F7E18
:105030007F767F767F767F767F767F767F7E5F76E0
:105040007F7E7F7E5F767F7E7F7E5B9694C5CDDCA4
:105050004BF409FC29FC49FCF1ACDBCE1C865F76E5
:105060007F7E5F769F7E7F765F7E5F7E5F7E7F76D0
:105070007F767F767F767F765F7E7F7E5F7E7F7EA8
:105080007F7E7F7E5F7E5F7E7F7E7F7E7F7E5F7E98
:105090007F7E7F7E5F7E7F7E7F7E7F7E5F7E7F7E68
:1050A0007F767F767F767F767F7E5F7E5F767F7E80
:1050B0007F7E5F767F765C8EB5AD8EC44CEC2AFC2D
:1050C00029FC08FCD28CBBB65E867F7E7F763F765D
:1050D0007F767F765F7E5F7E5F7E7F7E7F7E7F7660
:1050E0007F767F765F7E5F7E7F7E5F767F7E5F7E70
:1050F0005F7E7F7E5F7E5F7E5F7E7F7E7F7E7F7E48
:105100005F7E7F7E7F767F7E5F7E5F7E7F7E7F7627
:105110007F767F7E5F7E5F7E7F7E7F7E7F7E7F76F7
:105120007F767D8EDACEEFC44BE409FC29FC29FCA6
:10513000526CDDB63D865F7E7F7E7F7E7F7E7F7692
:105140007F7E7F7E5F7E5F7E7F767F767F7E5F7EE7
:105150007F7E5F767F7E5F7E7F7E5F765F7E7F7EF7
:105160005F7E5F7E5F7E7F7E7F7E7F7E7F767F76C7
:105170007F767F7E5F7E5F7E7F7E7F767F767F7E9F
:105180005F7E5F7E7F7E7F7E5F767F7E7F7E1C86FA
:10519000DBC6AFB46CE44AFC29FC09FC367D7C9E7E
:1051A0005E867F7E5F7E7F7E7F7E7F767F767F7E60
:1051B0005F7E5F7E7F767F765F7E5F7E7F7E7F7E97
:1051C0007F7E7F7E5F767F7E5F7E5F7E7F7E5F7E7F
:1051D0007F7E7F7E5F767F7E7F7E7F767F767F7E1F
:1051E0005F7E5F7E5F7E7F767F767F7E5F7E5F7E87
:1051F0005F7E7F7E7F7E5E767F7E3C8E1CD7AFBCDF
:105200006BE429FC29FC29FC77855C9E5D865F7E2A
:105210007F7E7F7E5F767F7E7F767F7E5F7E5F7E16
:105220007F767F765F7E5F7E7F7E7F767F767F76FE
:105230007F7E7F7E5F7E5F7E5F7E7F7E7F7E7F7EE6
:105240007F767F767F767F767F767F7E5F7E5F7EDE
:105250005F7E7F7E7F767F767F7E7F7E5F7E7F7EB6
:105260007F7E5F769F7E5D8E38C6AEC46BEC49FC58
:1052700028FC49FC3164FEB65D869F7E5F7E5F76CA
:105280007F7E7F767F7E7F7E5F7E5F7E7F767F768E
:105290007F7E5F7E7F7E7F767F767F767F7E7F7E5E
:1052A0005F7E5F7E5F7E5F7E7F7E7F7E7F767F76A6
:1052B0007F767F767F767F7E5F7E5F7E5F7E5F7E9E
:1052C0007F767F765F769F7E7F7E5F7E9F7E5F7636
:1052D0007F763C8EB5C5AED46AEC49FC49FC49FCEE
:1052E000F38C9BAE5E8E3F767F767F767F767F7681
:1052F0005F7E5F7E5F7E7F7E7F7E7F767F767F763E
:105300007F7E7F7E7F7E7F7E7F7E7F7E7F7E7F7EB5
:105310007F7E7F7E7F7E7F7E7F7E7F7E7F7E7F7EA5
:105320007F7E7F767F767F7E5F7E5F7E7F767F76F5
:105330009F767F767F7E7F863F767F7E7F769EA676
:10534000F1BC8CE469F448F448F449FCF1ACBACE01
:105350003D8E7F7E7F7E7F7E5F767F765F7E5F7E07
:105360005F7E7F767F767F767F767F767F7E7F7E9D
:105370007F7E7F7E7F7E7F7E7F7E7F7E7F7E7F7E45
:105380007F7E7F7E7F7E7F7E7F7E7F7E7F7E7F763D
:105390007F767F765F7E5F7E7F767F769F769F7655
:1053A0005F765F7E7F7E5F7E3E7EFDBE6FC46BEC70
:1053B00049F448FC48F448F4AFCC16D61A8E9F76D0
:1053C0005F767F7E7F7E7F7E5F7E5F7E7F767F766D
:1053D0007F767F767F7E7F7E7F7E7F7E7F7E7F7EF5
:1053E0007F7E7F7E7F7E7F7E7F7E7F7E7F7E7F7ED5
:1053F0007F7E7F7E7F7E7F7E5F7E7F7E7F767F76F5
:105400005F7E5F7E7F767F767F767F767F7E5F7E34
:105410005F7E5E865B9E17C66DD44AF449FC48FCED
:1054200048FC48F46CE48EBCFDBE7D867F7E3F76F2
:105430007F7E7F7E5F7E5F7E7F767F767F767F76E4
:105440007F7E5F7E7F7E7F7E7F7E7F7E7F7E7F7E94
:105450007F7E7F7E7F7E7F7E7F7E7F7E7F7E7F7E64
:105460007F7E7F7E5F7E7F7E7F767F765F7E5F7EC4
:105470007F767F767F765F767F7E5F7E7F7E1B8EF8
:10548000DBCEB0B46CE429FC28FC48FC48FC48FCAA
:105490004AF4ADDC17C63B967E869F7E7F7E5F76A4
:1054A0007F7E7F7E7F7E7F7E7F7E7F7E7F7E5F7E34
:1054B0007F7E7F7E7F7E7F7E7F7E7F7E7F7E7F7E04
:1054C0007F7E7F7E7F7E7F7E7F7E7F7E7F7E7F7EF4
:1054D0007F7E7F7E7F767F7E5F7E5F7E7F767F763C
:1054E0005F7E7F7E7F7E5E765C7EFCB631BDADDC0E
:1054F0004AF408FC29FC28FC28FC48FC28FC6BEC3E
:10550000D0C4DBD63B965D867E7E7F767F7E7F7EB7
:105510007F7E7F7E7F767F767F7E5F7E7F7E7F7ED3
:105520007F7E7F7E7F7E7F7E7F7E7F7E7F7E7F7E93
:105530007F7E7F7E7F7E7F7E7F7E7F7E7F767F7693
:105540007F7E5F7E7F7E7F7E7F767F763F7E7F86DB
:105550003E7E5C86DCA6F6B5CED44AEC29FC29FC5E
:1055600029FC29FC49FC49FC27FC29F44CE4B0CC7B
:10557000FBDE5A9E7C867E765F7E5F7E5F7E7F7ED0
:105580009F769F765F765F7E5F7E7F7E7F7E7F7E6B
:105590007F7E7F7E7F7E7F7E7F7E7F7E7F7E7F7E23
:1055A0007F7E7F7E7F7E7F767F767F765F7E5F8663
:1055B0007F7E7F767F767F767F7E7E7E3B86FCB6A3
:1055C000D5BDAFCC6BEC29FC29FC29FC29FC29FCBE
:1055D00029FC29FC48FC28FC2AFC4CE4D0C4D5BD9D
:1055E0001CBF7B963D8E1E863F867F7E5F767F76D4
:1055F0007F867F865F7E5F7E5F7E5F7E5F7E5F7E73
:105600005F7E5F7E5F7E5F7E5F7E5F7E5F7E5F7EB2
:105610005F7E5F7E7F7E5F7E5F7E3F7E7F7E7F7E62
:105620005E863D861B86BCA6DAC652B5CECC6BE440
:105630004AFC08FC29FC29FC29FC29FC29FC29FC42
:1056400049FC09F449FC29F44AECEDE48DB4F5C5B4
:10565000FBCEFDB65C8E7E8E7E869F8E7E8E5D86B8
:105660007E8E7E8E7E8E7E8E7E8E7E8E7E8E7E8EDA
:105670007E8E7E8E7E8E7E8E7E8E7E8E7E8E7E8ECA
:105680007E8E7E869E86BF867E863C8E9CA6FCBED7
:10569000DAD6F0B4AECC8CDC6AE449F429FC29FCFF
:1056A00029FC29FC29FC29FC29FC29FC29FC4AFCB1
:1056B00049FC69FC08FC29F46BDCCDCCAFAC6F94E1
:1056C000D6B596A5979D979D979DB7A5979D979DB4
:1056D000979D979D979D979D979D979D979D979D2A
:1056E000979D979D979D979D979D979D769D97A533
:1056F000B795B79597A596AD33AD8FA4AECC8DDC9D
:105700002AEC49FC49FC49FCE8F329FC29FC29FC6A
:1057100029FC29FC29FC29FC49FC29FC49FC29F429
:1057200049FC49FC4AF48BEC8BDC8CDC8DDC6DDCB9
:105730006DDC8EDC6DD48EDC8DDC8DDC8DDC8DDC67
:105740008DDC8DDC8DDC8DDC8DDC8DDC8DDC8DDC11
:105750008DDC8DDC8DDC8DDC8EE48DDC8DD4ADDCE0
:105760008DE46DE46CE46CE46BEC4AF409FC2AFC17
:1057700029FC29FC4AFC29FC29FC29FC29FC29FCE0
:1057800029FC29FC29FC29FC49FC49FC29FC29FCB1
:105790004AFC08F46AFC28EC49FC29FC09FC29FCB9
:1057A0004AFC29FC29FC29FC29FC29FC29FC29FCB0
:1057B00029FC29FC29FC29FC29FC29FC29FC29FCC1
:1057C00029FC29FC09FC29FC49FC29FC09FC29FCD1
:1057D00029FC29FC2AFC09FC0AFC2AFC29FC29FCDE
:1057E00029FC29FC29FC29FC29FC29FC29FC29FC91
:1057F000360036002841000849F449FC2AFC29FCFF
:1058000028FC28FC29FC29FC49F449FC09FC29FC5A
:105810000AFC09FC49FC48F46AEC6BE48DD4AED474
:10582000AECCAECCAFD46ED46DE44BEC6AF428FCB5
:1058300048FC28FC49FC49F429FC29FC29FC4AFCC9
:1058400029FC29FC28FC28FC48FC49FC29FC29FCF3
:1058500048FC48FC29FC29FC29FC29FC29FC29FCE2
:1058600029FC29FC49FC49FC29FC29FC29FC28FCD1
:1058700029FC29FC28F469FC09FC09FC2AFC4BF4EE
:105880008BE4ACDC6DCCAEC4D0BC15DEF9F6B8EE62
:1058900017E6B1BC32D58EC4ADDC8BE42AEC4AF4F9
:1058A0006AFC28F449FC49FC29FC29FC29FC29FC58
:1058B00028FC48FC28FC29FC29FC29FC48FC48FC65
:1058C00029FC29FC29FC29FC29FC29FC29FC29FCB0
:1058D00028FC29FC29FC29FC29FC29FC28FC48FC83
:1058E00049F429F44AFC09F46BEC8DD4D0BC37CED2
:1058F0009DE77DCF5EC71DB7BCAEDDB61EBF3EC700
:105900001DC79DDF3ADF11B5CFCC4CDC29F428FC54
:10591000E8FB29FC49FC29FC28FC49FC29FC29FC62
:1059200009FC09FC29FC29FC29FC29FC29FC29FC8F
:1059300029FC29FC29FC29FC29FC29FC28FC29FC40
:1059400029FC29FC29FC29FC28FC48FC49F44AF4E0
:105950002AF46CE4ADCCB7EE7DDFFDB6FEA61F9F4A
:10596000FF9E3F9F1F9FFF9E3F9F1F9F1F9FFD9E6C
:10597000FCAE5DCF3CF7F1CC6CDC6BF46AFC29FC2F
:1059800028FC29FC49FC49FC08F429FC09FC09FC19
:1059900029FC49FC29FC29FC29FC29FC29FC29FCBF
:1059A00029FC29FC29FC29FC28FC29FC29FC29FCD0
:1059B00029FC29FC29FC29FC49FC2AEC6CE410CDCB
:1059C0009CEFBBB61EB7BD9EFFA61FA7FFA61FA7D5
:1059D0001FA7FF9E1F9FFF9E1F9F1F9F1FA7FFAE1A
:1059E0007CB67EEFF5CDAECC4AEC28FC49FC29FC18
:1059F00029F449FC49FC49FC29FC29FC4AF449F4F6
:105A000029FC29FC2AFC29FC29FC29FC29FC29FC6D
:105A100029FC29FC28FC29FC29FC29FC29FC28FC60
:105A200029FC29FC4AF46CE431D57CEFBBAEFE9E28
:105A30001F9F1FA7FFA6DF9EFFA6FFA6FFA61FA70B
:105A4000FF9E1FA71F9F1F9F3FA7DF9E1FAF9DAEFB
:105A50001CCF3AEFADD44AEC4AFC29FC29F44AFCAD
:105A600049FC29FC29FC29FC49F449F449FC29FC9E
:105A700029FC29FC29FC29FC29FC29FC29FC29FCFE
:105A800048FC49FC29FC29FC29FC29FC29FC4AF496
:105A90006BE410D59DEF9CA6FEA63FA71F9F1F9FFE
:105AA0001F9F1FA7DFA6FFA61FA7FF9E1F9FFF9E8A
:105AB0001F9FFF9EFF9E1FA7FFA6FEA61DAFDABE7B
:105AC000B7E6EED40AEC29FC4AFC29FC08FC29FCC8
:105AD00029FC29FC49FC48FC48FC48FC28FC29FC22
